{
  "contractName": "MyToken",
  "abi": [
    {
      "inputs": [],
      "stateMutability": "nonpayable",
      "type": "constructor"
    },
    {
      "anonymous": false,
      "inputs": [
        {
          "indexed": false,
          "internalType": "string",
          "name": "message",
          "type": "string"
        },
        {
          "indexed": false,
          "internalType": "uint256",
          "name": "value",
          "type": "uint256"
        }
      ],
      "name": "DataLogged",
      "type": "event"
    },
    {
      "anonymous": false,
      "inputs": [
        {
          "indexed": false,
          "internalType": "string",
          "name": "message",
          "type": "string"
        },
        {
          "indexed": false,
          "internalType": "string",
          "name": "name",
          "type": "string"
        },
        {
          "indexed": false,
          "internalType": "string",
          "name": "imgUrl",
          "type": "string"
        },
        {
          "indexed": false,
          "internalType": "string",
          "name": "price",
          "type": "string"
        }
      ],
      "name": "DataLogged2",
      "type": "event"
    },
    {
      "anonymous": false,
      "inputs": [
        {
          "indexed": false,
          "internalType": "string",
          "name": "message",
          "type": "string"
        },
        {
          "indexed": false,
          "internalType": "string",
          "name": "name",
          "type": "string"
        },
        {
          "indexed": false,
          "internalType": "string",
          "name": "imgUrl",
          "type": "string"
        },
        {
          "indexed": false,
          "internalType": "string",
          "name": "price",
          "type": "string"
        }
      ],
      "name": "DataLogged3",
      "type": "event"
    },
    {
      "inputs": [
        {
          "internalType": "string[]",
          "name": "data",
          "type": "string[]"
        },
        {
          "internalType": "uint256",
          "name": "amount",
          "type": "uint256"
        }
      ],
      "name": "mint",
      "outputs": [
        {
          "internalType": "uint256",
          "name": "",
          "type": "uint256"
        }
      ],
      "stateMutability": "nonpayable",
      "type": "function"
    },
    {
      "inputs": [
        {
          "internalType": "uint256",
          "name": "tokenId",
          "type": "uint256"
        },
        {
          "internalType": "uint256",
          "name": "amount",
          "type": "uint256"
        }
      ],
      "name": "addAmount",
      "outputs": [
        {
          "internalType": "bool",
          "name": "",
          "type": "bool"
        }
      ],
      "stateMutability": "nonpayable",
      "type": "function"
    },
    {
      "inputs": [
        {
          "internalType": "address",
          "name": "to",
          "type": "address"
        },
        {
          "internalType": "uint256",
          "name": "tokenId",
          "type": "uint256"
        },
        {
          "internalType": "uint256",
          "name": "amount",
          "type": "uint256"
        }
      ],
      "name": "transfer",
      "outputs": [
        {
          "internalType": "bool",
          "name": "",
          "type": "bool"
        }
      ],
      "stateMutability": "nonpayable",
      "type": "function"
    },
    {
      "inputs": [
        {
          "internalType": "uint256",
          "name": "tokenId",
          "type": "uint256"
        }
      ],
      "name": "getNFT",
      "outputs": [
        {
          "internalType": "string",
          "name": "name",
          "type": "string"
        },
        {
          "internalType": "string",
          "name": "imgUrl",
          "type": "string"
        },
        {
          "internalType": "string",
          "name": "price",
          "type": "string"
        }
      ],
      "stateMutability": "view",
      "type": "function",
      "constant": true
    }
  ],
  "bytecode": "0x6080604052600060035534801561001557600080fd5b5033600260006101000a81548173ffffffffffffffffffffffffffffffffffffffff021916908373ffffffffffffffffffffffffffffffffffffffff16021790555061166e806100666000396000f3fe608060405234801561001057600080fd5b506004361061004c5760003560e01c8063095bcdb614610051578063576f7ea714610081578063bd7c27e0146100b3578063c0f236a8146100e3575b600080fd5b61006b60048036038101906100669190610f1f565b610113565b60405161007891906111e9565b60405180910390f35b61009b60048036038101906100969190610fc2565b610480565b6040516100aa93929190611204565b60405180910390f35b6100cd60048036038101906100c89190610f6e565b610679565b6040516100da91906112de565b60405180910390f35b6100fd60048036038101906100f89190610feb565b6109cb565b60405161010a91906111e9565b60405180910390f35b600080600160008581526020019081526020016000209050600181805490501015610142576000915050610479565b60007fffffffffffffffffffffffffffffffffffffffffffffffffffffffffffffffff905060007fffffffffffffffffffffffffffffffffffffffffffffffffffffffffffffffff905060005b83805490508110156102f2573373ffffffffffffffffffffffffffffffffffffffff168482815481106101eb577f4e487b7100000000000000000000000000000000000000000000000000000000600052603260045260246000fd5b906000526020600020906002020160000160009054906101000a900473ffffffffffffffffffffffffffffffffffffffff1673ffffffffffffffffffffffffffffffffffffffff16141561023d578092505b8773ffffffffffffffffffffffffffffffffffffffff1684828154811061028d577f4e487b7100000000000000000000000000000000000000000000000000000000600052603260045260246000fd5b906000526020600020906002020160000160009054906101000a900473ffffffffffffffffffffffffffffffffffffffff1673ffffffffffffffffffffffffffffffffffffffff1614156102df578091505b80806102ea906114e8565b91505061018f565b507fffffffffffffffffffffffffffffffffffffffffffffffffffffffffffffffff82148061034057507fffffffffffffffffffffffffffffffffffffffffffffffffffffffffffffffff81145b156103515760009350505050610479565b8483838154811061038b577f4e487b7100000000000000000000000000000000000000000000000000000000600052603260045260246000fd5b90600052602060002090600202016001015410156103af5760009350505050610479565b848383815481106103e9577f4e487b7100000000000000000000000000000000000000000000000000000000600052603260045260246000fd5b9060005260206000209060020201600101600082825461040991906113f8565b925050819055508483828154811061044a577f4e487b7100000000000000000000000000000000000000000000000000000000600052603260045260246000fd5b9060005260206000209060020201600101600082825461046a91906113a2565b92505081905550600193505050505b9392505050565b606080606060008060008681526020019081526020016000206040518060600160405290816000820180546104b4906114b6565b80601f01602080910402602001604051908101604052809291908181526020018280546104e0906114b6565b801561052d5780601f106105025761010080835404028352916020019161052d565b820191906000526020600020905b81548152906001019060200180831161051057829003601f168201915b50505050508152602001600182018054610546906114b6565b80601f0160208091040260200160405190810160405280929190818152602001828054610572906114b6565b80156105bf5780601f10610594576101008083540402835291602001916105bf565b820191906000526020600020905b8154815290600101906020018083116105a257829003601f168201915b505050505081526020016002820180546105d8906114b6565b80601f0160208091040260200160405190810160405280929190818152602001828054610604906114b6565b80156106515780601f1061062657610100808354040283529160200191610651565b820191906000526020600020905b81548152906001019060200180831161063457829003601f168201915b5050505050815250509050806000015181602001518260400151935093509350509193909250565b6000600260009054906101000a900473ffffffffffffffffffffffffffffffffffffffff1673ffffffffffffffffffffffffffffffffffffffff163373ffffffffffffffffffffffffffffffffffffffff161461070b576040517f08c379a0000000000000000000000000000000000000000000000000000000008152600401610702906112be565b60405180910390fd5b600283511161074f576040517f08c379a000000000000000000000000000000000000000000000000000000000815260040161074690611270565b60405180910390fd5b6000610759610cc3565b90507f1474aaaae58a3d34986c5675a9bb7727372befe6bbe1cf095dffb4b9795058738160405161078a9190611290565b60405180910390a161079a610d12565b846000815181106107d4577f4e487b7100000000000000000000000000000000000000000000000000000000600052603260045260246000fd5b602002602001015181600001819052508460018151811061081e577f4e487b7100000000000000000000000000000000000000000000000000000000600052603260045260246000fd5b6020026020010151816020018190525084600281518110610868577f4e487b7100000000000000000000000000000000000000000000000000000000600052603260045260246000fd5b60200260200101518160400181905250610880610d33565b33816000019073ffffffffffffffffffffffffffffffffffffffff16908173ffffffffffffffffffffffffffffffffffffffff1681525050848160200181815250508160008085815260200190815260200160002060008201518160000190805190602001906108f1929190610d63565b50602082015181600101908051906020019061090e929190610d63565b50604082015181600201908051906020019061092b929190610d63565b509050506001600084815260200190815260200160002081908060018154018082558091505060019003906000526020600020906002020160009091909190915060008201518160000160006101000a81548173ffffffffffffffffffffffffffffffffffffffff021916908373ffffffffffffffffffffffffffffffffffffffff16021790555060208201518160010155505082935050505092915050565b6000600260009054906101000a900473ffffffffffffffffffffffffffffffffffffffff1673ffffffffffffffffffffffffffffffffffffffff163373ffffffffffffffffffffffffffffffffffffffff1614610a5d576040517f08c379a0000000000000000000000000000000000000000000000000000000008152600401610a54906112be565b60405180910390fd5b6000600160008581526020019081526020016000209050600181805490501015610abc576040517f08c379a0000000000000000000000000000000000000000000000000000000008152600401610ab390611250565b60405180910390fd5b6000805b8280549050811015610be7573373ffffffffffffffffffffffffffffffffffffffff16838281548110610b1c577f4e487b7100000000000000000000000000000000000000000000000000000000600052603260045260246000fd5b906000526020600020906002020160000160009054906101000a900473ffffffffffffffffffffffffffffffffffffffff1673ffffffffffffffffffffffffffffffffffffffff161415610bd4576001915084838281548110610ba8577f4e487b7100000000000000000000000000000000000000000000000000000000600052603260045260246000fd5b90600052602060002090600202016001016000828254610bc891906113a2565b92505081905550610be7565b8080610bdf906114e8565b915050610ac0565b5080610cb757610bf5610d33565b33816000019073ffffffffffffffffffffffffffffffffffffffff16908173ffffffffffffffffffffffffffffffffffffffff1681525050848160200181815250508281908060018154018082558091505060019003906000526020600020906002020160009091909190915060008201518160000160006101000a81548173ffffffffffffffffffffffffffffffffffffffff021916908373ffffffffffffffffffffffffffffffffffffffff160217905550602082015181600101555050505b60019250505092915050565b600060036000815480929190610cd8906114e8565b91905055504233600354604051602001610cf4939291906111ac565b6040516020818303038152906040528051906020012060001c905090565b60405180606001604052806060815260200160608152602001606081525090565b6040518060400160405280600073ffffffffffffffffffffffffffffffffffffffff168152602001600081525090565b828054610d6f906114b6565b90600052602060002090601f016020900481019282610d915760008555610dd8565b82601f10610daa57805160ff1916838001178555610dd8565b82800160010185558215610dd8579182015b82811115610dd7578251825591602001919060010190610dbc565b5b509050610de59190610de9565b5090565b5b80821115610e02576000816000905550600101610dea565b5090565b6000610e19610e148461132a565b6112f9565b9050808382526020820190508260005b85811015610e595781358501610e3f8882610ee0565b845260208401935060208301925050600181019050610e29565b5050509392505050565b6000610e76610e7184611356565b6112f9565b905082815260208101848484011115610e8e57600080fd5b610e99848285611474565b509392505050565b600081359050610eb08161160a565b92915050565b600082601f830112610ec757600080fd5b8135610ed7848260208601610e06565b91505092915050565b600082601f830112610ef157600080fd5b8135610f01848260208601610e63565b91505092915050565b600081359050610f1981611621565b92915050565b600080600060608486031215610f3457600080fd5b6000610f4286828701610ea1565b9350506020610f5386828701610f0a565b9250506040610f6486828701610f0a565b9150509250925092565b60008060408385031215610f8157600080fd5b600083013567ffffffffffffffff811115610f9b57600080fd5b610fa785828601610eb6565b9250506020610fb885828601610f0a565b9150509250929050565b600060208284031215610fd457600080fd5b6000610fe284828501610f0a565b91505092915050565b60008060408385031215610ffe57600080fd5b600061100c85828601610f0a565b925050602061101d85828601610f0a565b9150509250929050565b6110386110338261142c565b611531565b82525050565b6110478161143e565b82525050565b600061105882611386565b6110628185611391565b9350611072818560208601611483565b61107b816115ec565b840191505092915050565b6000611093600f83611391565b91507f496e76616c696420746f6b656e496400000000000000000000000000000000006000830152602082019050919050565b60006110d3601183611391565b91507f496e73756666696369656e7420446174610000000000000000000000000000006000830152602082019050919050565b6000611113601b83611391565b91507f41737369676e65642076616c7565206f6620746f6b656e49643a2000000000006000830152602082019050919050565b6000611153602083611391565b91507f4f6e6c79206f776e65722063616e20706572666f726d2074686973207461736b6000830152602082019050919050565b61118f8161146a565b82525050565b6111a66111a18261146a565b611555565b82525050565b60006111b88286611195565b6020820191506111c88285611027565b6014820191506111d88284611195565b602082019150819050949350505050565b60006020820190506111fe600083018461103e565b92915050565b6000606082019050818103600083015261121e818661104d565b90508181036020830152611232818561104d565b90508181036040830152611246818461104d565b9050949350505050565b6000602082019050818103600083015261126981611086565b9050919050565b60006020820190508181036000830152611289816110c6565b9050919050565b600060408201905081810360008301526112a981611106565b90506112b86020830184611186565b92915050565b600060208201905081810360008301526112d781611146565b9050919050565b60006020820190506112f36000830184611186565b92915050565b6000604051905081810181811067ffffffffffffffff821117156113205761131f6115bd565b5b8060405250919050565b600067ffffffffffffffff821115611345576113446115bd565b5b602082029050602081019050919050565b600067ffffffffffffffff821115611371576113706115bd565b5b601f19601f8301169050602081019050919050565b600081519050919050565b600082825260208201905092915050565b60006113ad8261146a565b91506113b88361146a565b9250827fffffffffffffffffffffffffffffffffffffffffffffffffffffffffffffffff038211156113ed576113ec61155f565b5b828201905092915050565b60006114038261146a565b915061140e8361146a565b9250828210156114215761142061155f565b5b828203905092915050565b60006114378261144a565b9050919050565b60008115159050919050565b600073ffffffffffffffffffffffffffffffffffffffff82169050919050565b6000819050919050565b82818337600083830152505050565b60005b838110156114a1578082015181840152602081019050611486565b838111156114b0576000848401525b50505050565b600060028204905060018216806114ce57607f821691505b602082108114156114e2576114e161158e565b5b50919050565b60006114f38261146a565b91507fffffffffffffffffffffffffffffffffffffffffffffffffffffffffffffffff8214156115265761152561155f565b5b600182019050919050565b600061153c82611543565b9050919050565b600061154e826115fd565b9050919050565b6000819050919050565b7f4e487b7100000000000000000000000000000000000000000000000000000000600052601160045260246000fd5b7f4e487b7100000000000000000000000000000000000000000000000000000000600052602260045260246000fd5b7f4e487b7100000000000000000000000000000000000000000000000000000000600052604160045260246000fd5b6000601f19601f8301169050919050565b60008160601b9050919050565b6116138161142c565b811461161e57600080fd5b50565b61162a8161146a565b811461163557600080fd5b5056fea2646970667358221220e18205feda7c0b9d1b6697e377c930217f5b5d92975af36b991fc4aa51eb7d6d64736f6c63430008000033",
  "immutableReferences": {},
  "source": "// SPDX-License-Identifier: MIT\npragma solidity ^0.8.0;\n\ncontract MyToken {\n    event DataLogged(string message, uint256 value);\n    event DataLogged2(string message, string name, string imgUrl, string price);\n    event DataLogged3(string message, string name, string imgUrl, string price);\n\n    struct Metadata {\n        string name;\n        string imgUrl;\n        string price;\n    }\n\n    struct Ownership {\n        address owner;\n        uint256 amount;\n    }\n\n    mapping(uint256 => Metadata) private NFTs;\n    mapping(uint256 => Ownership[]) private owners;\n    address private contract_owner;\n\n    constructor() {\n        contract_owner = msg.sender;\n    }\n\n    uint256 private randNonce = 0;\n\n    function randMod() private returns (uint256) {\n        randNonce++;\n        return uint256(keccak256(abi.encodePacked(block.timestamp, msg.sender, randNonce)));\n    }\n\n    modifier onlyOwner() {\n        require(msg.sender == contract_owner, \"Only owner can perform this task\");\n        _;\n    }\n\n    function mint(string[] memory data, uint256 amount) public onlyOwner returns (uint256) {\n        require(data.length > 2, \"Insufficient Data\");\n        uint256 tokenId = randMod();\n        emit DataLogged(\"Assigned value of tokenId: \", tokenId);\n        Metadata memory obj;\n        obj.name = data[0];\n        obj.imgUrl = data[1];\n        obj.price = data[2];\n\n        Ownership memory obj2;\n        obj2.owner = msg.sender;\n        obj2.amount = amount;\n\n        NFTs[tokenId] = obj;\n        owners[tokenId].push(obj2);\n\n        return tokenId;\n    }\n\n    function addAmount(uint256 tokenId, uint256 amount) public onlyOwner returns (bool) {\n        Ownership[] storage arr = owners[tokenId];\n        require(arr.length >= 1, \"Invalid tokenId\");\n\n        bool found = false;\n        for (uint256 i = 0; i < arr.length; i++) {\n            if (arr[i].owner == msg.sender) {\n                found = true;\n                arr[i].amount += amount;\n                break;\n            }\n        }\n        if (!found) {\n            Ownership memory obj;\n            obj.owner = msg.sender;\n            obj.amount = amount;\n            arr.push(obj);\n        }\n        return true;\n    }\n\n    function transfer(address to, uint256 tokenId, uint256 amount) public returns (bool) {\n        Ownership[] storage arr = owners[tokenId];\n        if (arr.length < 1) {\n            return false;\n        }\n        uint256 senderIndex = type(uint256).max;\n        uint256 receiverIndex = type(uint256).max;\n        for (uint256 i = 0; i < arr.length; i++) {\n            if (arr[i].owner == msg.sender) {\n                senderIndex = i;\n            }\n            if (arr[i].owner == to) {\n                receiverIndex = i;\n            }\n        }\n        if (senderIndex == type(uint256).max || receiverIndex == type(uint256).max) {\n            return false;\n        }\n        if (arr[senderIndex].amount < amount) {\n            return false;\n        }\n        arr[senderIndex].amount -= amount;\n        arr[receiverIndex].amount += amount;\n\n        return true;\n    }\n\n    function getNFT(uint256 tokenId) public view returns (string memory name, string memory imgUrl, string memory price) {\n        Metadata memory NFT = NFTs[tokenId];\n        // emit DataLogged(\"token Id received: \", tokenId);\n        // emit DataLogged3(\"NFT found:\", NFT.name, NFT.imgUrl, NFT.price);\n        return (NFT.name, NFT.imgUrl, NFT.price);\n    }\n}\n",
  "sourcePath": "/home/sparsh/Projects/Sparkathon/suplyIt-2.0/blockchain/Smart contract/contracts/MyToken.sol",
  "compiler": {
    "name": "solc",
    "version": "0.8.0+commit.c7dfd78e.Emscripten.clang"
  },
  "schemaVersion": "3.4.16",
  "updatedAt": "2024-08-12T16:17:21.809Z",
  "networkType": "ethereum",
  "devdoc": {
    "kind": "dev",
    "methods": {},
    "version": 1
  },
  "userdoc": {
    "kind": "user",
    "methods": {},
    "version": 1
  }
}